{
  "transactions": [
    {
      "hash": "0x7725e80faaa40de20eaca54ee10e8dcf8c40b6796483a13853c649ffc5f9ade2",
      "transactionType": "CALL",
      "contractName": null,
      "contractAddress": "0x8029f7a25961b559abbafa82e038f0f71256cb6a",
      "function": "mint(address,uint256)",
      "arguments": [
        "0xf39Fd6e51aad88F6F4ce6aB8827279cffFb92266",
        "1000000000000000000000000"
      ],
      "transaction": {
        "from": "0xd51d756092ac1ca3495883a9a02aac27065a0303",
        "to": "0x8029f7a25961b559abbafa82e038f0f71256cb6a",
        "gas": "0x1317d",
        "value": "0x0",
        "input": "0x40c10f19000000000000000000000000f39fd6e51aad88f6f4ce6ab8827279cfffb9226600000000000000000000000000000000000000000000d3c21bcecceda1000000",
        "nonce": "0x6",
        "chainId": "0xaa36a7"
      },
      "additionalContracts": [],
      "isFixedGasLimit": false
    }
  ],
  "receipts": [
    {
      "status": "0x1",
      "cumulativeGasUsed": "0x121e36b",
      "logs": [
        {
          "address": "0x8029f7a25961b559abbafa82e038f0f71256cb6a",
          "topics": [
            "0xddf252ad1be2c89b69c2b068fc378daa952ba7f163c4a11628f55a4df523b3ef",
            "0x0000000000000000000000000000000000000000000000000000000000000000",
            "0x000000000000000000000000f39fd6e51aad88f6f4ce6ab8827279cfffb92266"
          ],
          "data": "0x00000000000000000000000000000000000000000000d3c21bcecceda1000000",
          "blockHash": "0x5b02d3f22578da324a13499ab68afc4a4114c24b4777d8e1cc859dfafdaa8183",
          "blockNumber": "0xab90e0",
          "blockTimestamp": "0x6a50fd14",
          "transactionHash": "0x7725e80faaa40de20eaca54ee10e8dcf8c40b6796483a13853c649ffc5f9ade2",
          "transactionIndex": "0x77",
          "logIndex": "0x2e9",
          "removed": false
        }
      ],
      "logsBloom": "0x00000000000000000000000000000000200000000000000000000000000000000000000000000000000000000000000000000000000000000000000000000000000000000000000000000008000000000000000000000000000000000000000000000000020000000000000100000800000000000000000000000010000000000000000000000000000000100000000000000000000000000000000000000000000000000000000000000000000000000000002000000000000000000000000000000002000000200000000000000000000000002000000000000000000020000000000000000000000000000000000000000000000000000000000000000000",
      "type": "0x2",
      "transactionHash": "0x7725e80faaa40de20eaca54ee10e8dcf8c40b6796483a13853c649ffc5f9ade2",
      "transactionIndex": "0x77",
      "blockHash": "0x5b02d3f22578da324a13499ab68afc4a4114c24b4777d8e1cc859dfafdaa8183",
      "blockNumber": "0xab90e0",
      "gasUsed": "0xd0e2",
      "effectiveGasPrice": "0x416a8acf",
      "from": "0xd51d756092ac1ca3495883a9a02aac27065a0303",
      "to": "0x8029f7a25961b559abbafa82e038f0f71256cb6a",
      "contractAddress": null
    }
  ],
  "libraries": [],
  "pending": [],
  "returns": {},
  "timestamp": 1783692565322,
  "chain": 11155111,
  "commit": "b264a1d"
}