{
  "transactions": [
    {
      "hash": "0xf860af4f5320ff2a6ddc793bcd8a429a8ce226707beb12faa738aea05f572e63",
      "transactionType": "CALL",
      "contractName": null,
      "contractAddress": "0x8029f7a25961b559abbafa82e038f0f71256cb6a",
      "function": "mint(address,uint256)",
      "arguments": [
        "0x1268AD189526AC0b386faF06eFfC46779c340eE6",
        "1000000000000000000000000000"
      ],
      "transaction": {
        "from": "0xd51d756092ac1ca3495883a9a02aac27065a0303",
        "to": "0x8029f7a25961b559abbafa82e038f0f71256cb6a",
        "gas": "0x131a0",
        "value": "0x0",
        "input": "0x40c10f190000000000000000000000001268ad189526ac0b386faf06effc46779c340ee60000000000000000000000000000000000000000033b2e3c9fd0803ce8000000",
        "nonce": "0x7",
        "chainId": "0xaa36a7"
      },
      "additionalContracts": [],
      "isFixedGasLimit": false
    }
  ],
  "receipts": [
    {
      "status": "0x1",
      "cumulativeGasUsed": "0xc359e5",
      "logs": [
        {
          "address": "0x8029f7a25961b559abbafa82e038f0f71256cb6a",
          "topics": [
            "0xddf252ad1be2c89b69c2b068fc378daa952ba7f163c4a11628f55a4df523b3ef",
            "0x0000000000000000000000000000000000000000000000000000000000000000",
            "0x0000000000000000000000001268ad189526ac0b386faf06effc46779c340ee6"
          ],
          "data": "0x0000000000000000000000000000000000000000033b2e3c9fd0803ce8000000",
          "blockHash": "0x201286e9131e71bd88a089c1ae0da6ad81210a83629e44cf4894e0184cb1c8d9",
          "blockNumber": "0xab9100",
          "blockTimestamp": "0x6a50fed0",
          "transactionHash": "0xf860af4f5320ff2a6ddc793bcd8a429a8ce226707beb12faa738aea05f572e63",
          "transactionIndex": "0x4b",
          "logIndex": "0x22b",
          "removed": false
        }
      ],
      "logsBloom": "0x00000000000000000000000000000000200000000020000000000000000000000000000000100000000000000000000000000000000000000000000000000000000000000000000000000008000000000000000000000000000000000000000000000000020000000000000000000800000000000000000000000010000000000000000000000000000000100000000000000000000000000000000000000000000008000000000000000000000000000000002000000000000000000000000000000002000000000000000000000000000000000000000000000000000020000000000000000000000000000000000000000000000000000000000000000000",
      "type": "0x2",
      "transactionHash": "0xf860af4f5320ff2a6ddc793bcd8a429a8ce226707beb12faa738aea05f572e63",
      "transactionIndex": "0x4b",
      "blockHash": "0x201286e9131e71bd88a089c1ae0da6ad81210a83629e44cf4894e0184cb1c8d9",
      "blockNumber": "0xab9100",
      "gasUsed": "0xd0fa",
      "effectiveGasPrice": "0xb647d40b",
      "from": "0xd51d756092ac1ca3495883a9a02aac27065a0303",
      "to": "0x8029f7a25961b559abbafa82e038f0f71256cb6a",
      "contractAddress": null
    }
  ],
  "libraries": [],
  "pending": [],
  "returns": {},
  "timestamp": 1783693008677,
  "chain": 11155111,
  "commit": "b264a1d"
}